{
  "transactions": [
    {
      "hash": "0x7c6c002dbc3815a66abab4bb0621f93220cd958526b8bc1d84234ac7dda49617",
      "transactionType": "CALL",
      "contractName": null,
      "contractAddress": "0xe79bf574bfcfc17ba858cc311ce5fef8b78e947b",
      "function": "mint(address,string,(string,string,string,uint256),bytes32,string,bytes)",
      "arguments": [
        "0x96455C9b00D530BD0629b71B674298440328b1Dd",
        "0g://0x635c97fdd5fb6da6db5bbb418998733f8cf9a6c85606e3ce641a9eb908f761a2",
        "(AgentFi Portfolio Analyzer, Autonomous DeFi portfolio analysis with real-time CoinGecko data, [\\\"portfolio_analysis\\\",\\\"token_tracking\\\",\\\"allocation_report\\\",\\\"real_time_prices\\\",\\\"wallet_balance\\\"], 1000000000000000)",
        "0x3f889c162fad97973bd7cc6f520389f359c5257e2fb54d171a6009f26b398106",
        "0g://0x2972c682b617d98a79128993464df7f110030bee751a7c9a7a844fdb8c73b994",
        "0x7365616c65642d6b65792d706f7274666f6c696f2d7632"
      ],
      "transaction": {
        "from": "0x96455c9b00d530bd0629b71b674298440328b1dd",
        "to": "0xe79bf574bfcfc17ba858cc311ce5fef8b78e947b",
        "gas": "0xc61cb",
        "value": "0x0",
        "input": "0x45d0781c00000000000000000000000096455c9b00d530bd0629b71b674298440328b1dd00000000000000000000000000000000000000000000000000000000000000c000000000000000000000000000000000000000000000000000000000000001403f889c162fad97973bd7cc6f520389f359c5257e2fb54d171a6009f26b39810600000000000000000000000000000000000000000000000000000000000002e00000000000000000000000000000000000000000000000000000000000000360000000000000000000000000000000000000000000000000000000000000004730673a2f2f30783633356339376664643566623664613664623562626234313839393837333366386366396136633835363036653363653634316139656239303866373631613200000000000000000000000000000000000000000000000000000000000000000000000000000000000000000000000000000000000000008000000000000000000000000000000000000000000000000000000000000000c0000000000000000000000000000000000000000000000000000000000000012000000000000000000000000000000000000000000000000000038d7ea4c68000000000000000000000000000000000000000000000000000000000000000001a4167656e74466920506f7274666f6c696f20416e616c797a657200000000000000000000000000000000000000000000000000000000000000000000000000404175746f6e6f6d6f7573204465466920706f7274666f6c696f20616e616c797369732077697468207265616c2d74696d6520436f696e4765636b6f2064617461000000000000000000000000000000000000000000000000000000000000005f5b22706f7274666f6c696f5f616e616c79736973222c22746f6b656e5f747261636b696e67222c22616c6c6f636174696f6e5f7265706f7274222c227265616c5f74696d655f707269636573222c2277616c6c65745f62616c616e6365225d00000000000000000000000000000000000000000000000000000000000000004730673a2f2f3078323937326336383262363137643938613739313238393933343634646637663131303033306265653735316137633961376138343466646238633733623939340000000000000000000000000000000000000000000000000000000000000000000000000000000000000000000000000000000000000000177365616c65642d6b65792d706f7274666f6c696f2d7632000000000000000000",
        "nonce": "0x18",
        "chainId": "0x40da"
      },
      "additionalContracts": [],
      "isFixedGasLimit": false
    },
    {
      "hash": "0x97dbff9a4784efb0969725f6fc8e56ffce9c0d4ec1fa2138a7d03326c3b237db",
      "transactionType": "CALL",
      "contractName": null,
      "contractAddress": "0xe79bf574bfcfc17ba858cc311ce5fef8b78e947b",
      "function": "mint(address,string,(string,string,string,uint256),bytes32,string,bytes)",
      "arguments": [
        "0x96455C9b00D530BD0629b71B674298440328b1Dd",
        "0g://0xca4ab8728f6319f2f90c25c66dd7b5e20c2f773215329e8ec261d349c56de18b",
        "(AgentFi Yield Optimizer, Multi-protocol yield optimization - SaucerSwap, Bonzo Finance, DeFi Llama, [\\\"yield_optimization\\\",\\\"defi_yields\\\",\\\"saucerswap\\\",\\\"bonzo_finance\\\",\\\"strategy_recommendation\\\"], 1000000000000000)",
        "0x2aa9239429308e7de89e780d6a89e93f15cfa1bb2bbe2f95ee6ba1f3700bcc9c",
        "0g://0xa69ea2bfb648d6764e2ab0c0e541a1c2100d9b69b83cf9cf4c9eca5de36f6e05",
        "0x7365616c65642d6b65792d7969656c642d7632"
      ],
      "transaction": {
        "from": "0x96455c9b00d530bd0629b71b674298440328b1dd",
        "to": "0xe79bf574bfcfc17ba858cc311ce5fef8b78e947b",
        "gas": "0xb71b7",
        "value": "0x0",
        "input": "0x45d0781c00000000000000000000000096455c9b00d530bd0629b71b674298440328b1dd00000000000000000000000000000000000000000000000000000000000000c000000000000000000000000000000000000000000000000000000000000001402aa9239429308e7de89e780d6a89e93f15cfa1bb2bbe2f95ee6ba1f3700bcc9c00000000000000000000000000000000000000000000000000000000000003000000000000000000000000000000000000000000000000000000000000000380000000000000000000000000000000000000000000000000000000000000004730673a2f2f30786361346162383732386636333139663266393063323563363664643762356532306332663737333231353332396538656332363164333439633536646531386200000000000000000000000000000000000000000000000000000000000000000000000000000000000000000000000000000000000000008000000000000000000000000000000000000000000000000000000000000000c0000000000000000000000000000000000000000000000000000000000000014000000000000000000000000000000000000000000000000000038d7ea4c6800000000000000000000000000000000000000000000000000000000000000000174167656e744669205969656c64204f7074696d697a657200000000000000000000000000000000000000000000000000000000000000000000000000000000494d756c74692d70726f746f636f6c207969656c64206f7074696d697a6174696f6e202d20536175636572537761702c20426f6e7a6f2046696e616e63652c2044654669204c6c616d610000000000000000000000000000000000000000000000000000000000000000000000000000000000000000000000000000000000005b5b227969656c645f6f7074696d697a6174696f6e222c22646566695f7969656c6473222c2273617563657273776170222c22626f6e7a6f5f66696e616e6365222c2273747261746567795f7265636f6d6d656e646174696f6e225d0000000000000000000000000000000000000000000000000000000000000000000000004730673a2f2f3078613639656132626662363438643637363465326162306330653534316131633231303064396236396238336366396366346339656361356465333666366530350000000000000000000000000000000000000000000000000000000000000000000000000000000000000000000000000000000000000000137365616c65642d6b65792d7969656c642d763200000000000000000000000000",
        "nonce": "0x19",
        "chainId": "0x40da"
      },
      "additionalContracts": [],
      "isFixedGasLimit": false
    },
    {
      "hash": "0x1e4527cd5063fbfc0af3a78b275daabb69e86ffaa96ad00b332d7e454fcc8c0a",
      "transactionType": "CALL",
      "contractName": null,
      "contractAddress": "0xe79bf574bfcfc17ba858cc311ce5fef8b78e947b",
      "function": "mint(address,string,(string,string,string,uint256),bytes32,string,bytes)",
      "arguments": [
        "0x96455C9b00D530BD0629b71B674298440328b1Dd",
        "0g://0x038a76b255e7655b48138fabbf3fba5f42158ff43e590b254ae886104bdeda82",
        "(AgentFi Risk Scorer, Deterministic portfolio risk scoring - volatility, concentration, stablecoin analysis, [\\\"risk_scoring\\\",\\\"volatility_analysis\\\",\\\"deterministic_scoring\\\",\\\"portfolio_assessment\\\"], 500000000000000)",
        "0xb5ea18e6fb7697d0c728c26bfdd04910209086abc3c8c90021600d15a172269c",
        "0g://0x07011e703b01baf26f87daa3c7b890c605c6e70add63d0d8c67fe3cb77212bec",
        "0x7365616c65642d6b65792d7269736b2d7632"
      ],
      "transaction": {
        "from": "0x96455c9b00d530bd0629b71b674298440328b1dd",
        "to": "0xe79bf574bfcfc17ba858cc311ce5fef8b78e947b",
        "gas": "0xb71b7",
        "value": "0x0",
        "input": "0x45d0781c00000000000000000000000096455c9b00d530bd0629b71b674298440328b1dd00000000000000000000000000000000000000000000000000000000000000c00000000000000000000000000000000000000000000000000000000000000140b5ea18e6fb7697d0c728c26bfdd04910209086abc3c8c90021600d15a172269c00000000000000000000000000000000000000000000000000000000000003000000000000000000000000000000000000000000000000000000000000000380000000000000000000000000000000000000000000000000000000000000004730673a2f2f30783033386137366232353565373635356234383133386661626266336662613566343231353866663433653539306232353461653838363130346264656461383200000000000000000000000000000000000000000000000000000000000000000000000000000000000000000000000000000000000000008000000000000000000000000000000000000000000000000000000000000000c000000000000000000000000000000000000000000000000000000000000001400000000000000000000000000000000000000000000000000001c6bf5263400000000000000000000000000000000000000000000000000000000000000000134167656e744669205269736b2053636f72657200000000000000000000000000000000000000000000000000000000000000000000000000000000000000005544657465726d696e697374696320706f7274666f6c696f207269736b2073636f72696e67202d20766f6c6174696c6974792c20636f6e63656e74726174696f6e2c20737461626c65636f696e20616e616c79736973000000000000000000000000000000000000000000000000000000000000000000000000000000000000555b227269736b5f73636f72696e67222c22766f6c6174696c6974795f616e616c79736973222c2264657465726d696e69737469635f73636f72696e67222c22706f7274666f6c696f5f6173736573736d656e74225d0000000000000000000000000000000000000000000000000000000000000000000000000000000000004730673a2f2f3078303730313165373033623031626166323666383764616133633762383930633630356336653730616464363364306438633637666533636237373231326265630000000000000000000000000000000000000000000000000000000000000000000000000000000000000000000000000000000000000000127365616c65642d6b65792d7269736b2d76320000000000000000000000000000",
        "nonce": "0x1a",
        "chainId": "0x40da"
      },
      "additionalContracts": [],
      "isFixedGasLimit": false
    },
    {
      "hash": "0x91535de4bf79cf7df70ac0332a43cab8a015dba9e87b792945dc6dd7daebd653",
      "transactionType": "CALL",
      "contractName": null,
      "contractAddress": "0xc203e2686601cc252ece66f8c792ff88e8fbdd9b",
      "function": "listAgent(uint256,uint256)",
      "arguments": [
        "0",
        "1000000000000000"
      ],
      "transaction": {
        "from": "0x96455c9b00d530bd0629b71b674298440328b1dd",
        "to": "0xc203e2686601cc252ece66f8c792ff88e8fbdd9b",
        "gas": "0x2cf33",
        "value": "0x0",
        "input": "0x07e34e49000000000000000000000000000000000000000000000000000000000000000000000000000000000000000000000000000000000000000000038d7ea4c68000",
        "nonce": "0x1b",
        "chainId": "0x40da"
      },
      "additionalContracts": [],
      "isFixedGasLimit": false
    },
    {
      "hash": "0x1edeeb198b5b6d13499549904045d9a7e4910689c3d49e2488c6ac658db47e0c",
      "transactionType": "CALL",
      "contractName": null,
      "contractAddress": "0xc203e2686601cc252ece66f8c792ff88e8fbdd9b",
      "function": "listAgent(uint256,uint256)",
      "arguments": [
        "1",
        "1000000000000000"
      ],
      "transaction": {
        "from": "0x96455c9b00d530bd0629b71b674298440328b1dd",
        "to": "0xc203e2686601cc252ece66f8c792ff88e8fbdd9b",
        "gas": "0x350f3",
        "value": "0x0",
        "input": "0x07e34e49000000000000000000000000000000000000000000000000000000000000000100000000000000000000000000000000000000000000000000038d7ea4c68000",
        "nonce": "0x1c",
        "chainId": "0x40da"
      },
      "additionalContracts": [],
      "isFixedGasLimit": false
    },
    {
      "hash": "0xb5316055406fb48a356bd986d4af646caf13ba2ffdff1e22379fa83ad63a44ff",
      "transactionType": "CALL",
      "contractName": null,
      "contractAddress": "0xc203e2686601cc252ece66f8c792ff88e8fbdd9b",
      "function": "listAgent(uint256,uint256)",
      "arguments": [
        "2",
        "500000000000000"
      ],
      "transaction": {
        "from": "0x96455c9b00d530bd0629b71b674298440328b1dd",
        "to": "0xc203e2686601cc252ece66f8c792ff88e8fbdd9b",
        "gas": "0x350f3",
        "value": "0x0",
        "input": "0x07e34e4900000000000000000000000000000000000000000000000000000000000000020000000000000000000000000000000000000000000000000001c6bf52634000",
        "nonce": "0x1d",
        "chainId": "0x40da"
      },
      "additionalContracts": [],
      "isFixedGasLimit": false
    }
  ],
  "receipts": [
    {
      "status": "0x1",
      "cumulativeGasUsed": "0x9e7d5",
      "logs": [
        {
          "address": "0xe79bf574bfcfc17ba858cc311ce5fef8b78e947b",
          "topics": [
            "0xddf252ad1be2c89b69c2b068fc378daa952ba7f163c4a11628f55a4df523b3ef",
            "0x0000000000000000000000000000000000000000000000000000000000000000",
            "0x00000000000000000000000096455c9b00d530bd0629b71b674298440328b1dd",
            "0x0000000000000000000000000000000000000000000000000000000000000000"
          ],
          "data": "0x",
          "blockHash": "0xc5a272c854664dad4ccb36ebbc6ca8c5f3a1309561478075a1f92f60d711ccd5",
          "blockNumber": "0x14125a3",
          "blockTimestamp": "0x0",
          "transactionHash": "0xb5316055406fb48a356bd986d4af646caf13ba2ffdff1e22379fa83ad63a44ff",
          "transactionIndex": "0x0",
          "logIndex": "0x0",
          "removed": false
        },
        {
          "address": "0xe79bf574bfcfc17ba858cc311ce5fef8b78e947b",
          "topics": [
            "0xf8e1a15aba9398e019f0b49df1a4fde98ee17ae345cb5f6b5e2c27f5033e8ce7"
          ],
          "data": "0x0000000000000000000000000000000000000000000000000000000000000000",
          "blockHash": "0xc5a272c854664dad4ccb36ebbc6ca8c5f3a1309561478075a1f92f60d711ccd5",
          "blockNumber": "0x14125a3",
          "blockTimestamp": "0x0",
          "transactionHash": "0xb5316055406fb48a356bd986d4af646caf13ba2ffdff1e22379fa83ad63a44ff",
          "transactionIndex": "0x0",
          "logIndex": "0x1",
          "removed": false
        },
        {
          "address": "0xe79bf574bfcfc17ba858cc311ce5fef8b78e947b",
          "topics": [
            "0xa24526d9177ad7404926eef14a34a6c8283948f387d426e2ace696d7bb72d97c",
            "0x0000000000000000000000000000000000000000000000000000000000000000",
            "0x00000000000000000000000096455c9b00d530bd0629b71b674298440328b1dd"
          ],
          "data": "0x",
          "blockHash": "0xc5a272c854664dad4ccb36ebbc6ca8c5f3a1309561478075a1f92f60d711ccd5",
          "blockNumber": "0x14125a3",
          "blockTimestamp": "0x0",
          "transactionHash": "0xb5316055406fb48a356bd986d4af646caf13ba2ffdff1e22379fa83ad63a44ff",
          "transactionIndex": "0x0",
          "logIndex": "0x2",
          "removed": false
        }
      ],
      "logsBloom": "0x00000000000000000000000000800000000000000000000000000000000000000800000000000000000000000000000000000000800000000000000000000000000040000000000000000008000000000000400000000000000000000000000000000000020000000000000000000800000000000000000000000010000000000000000000000000000000000000000000000000000000000010000000000000000000000000000000000000000001002000000000000000000000000800008000000002000000000000000000000000000000000000000000000000000020000000000000000000200000000000000001000000000000000000000000000000",
      "type": "0x0",
      "transactionHash": "0xb5316055406fb48a356bd986d4af646caf13ba2ffdff1e22379fa83ad63a44ff",
      "transactionIndex": "0x0",
      "blockHash": "0xc5a272c854664dad4ccb36ebbc6ca8c5f3a1309561478075a1f92f60d711ccd5",
      "blockNumber": "0x14125a3",
      "gasUsed": "0x9e7d5",
      "effectiveGasPrice": "0xee6b2800",
      "from": "0x96455c9b00d530bd0629b71b674298440328b1dd",
      "to": "0xe79bf574bfcfc17ba858cc311ce5fef8b78e947b",
      "contractAddress": null
    },
    {
      "status": "0x1",
      "cumulativeGasUsed": "0x130f9a",
      "logs": [
        {
          "address": "0xe79bf574bfcfc17ba858cc311ce5fef8b78e947b",
          "topics": [
            "0xddf252ad1be2c89b69c2b068fc378daa952ba7f163c4a11628f55a4df523b3ef",
            "0x0000000000000000000000000000000000000000000000000000000000000000",
            "0x00000000000000000000000096455c9b00d530bd0629b71b674298440328b1dd",
            "0x0000000000000000000000000000000000000000000000000000000000000001"
          ],
          "data": "0x",
          "blockHash": "0xc5a272c854664dad4ccb36ebbc6ca8c5f3a1309561478075a1f92f60d711ccd5",
          "blockNumber": "0x14125a3",
          "blockTimestamp": "0x0",
          "transactionHash": "0x1e4527cd5063fbfc0af3a78b275daabb69e86ffaa96ad00b332d7e454fcc8c0a",
          "transactionIndex": "0x1",
          "logIndex": "0x3",
          "removed": false
        },
        {
          "address": "0xe79bf574bfcfc17ba858cc311ce5fef8b78e947b",
          "topics": [
            "0xf8e1a15aba9398e019f0b49df1a4fde98ee17ae345cb5f6b5e2c27f5033e8ce7"
          ],
          "data": "0x0000000000000000000000000000000000000000000000000000000000000001",
          "blockHash": "0xc5a272c854664dad4ccb36ebbc6ca8c5f3a1309561478075a1f92f60d711ccd5",
          "blockNumber": "0x14125a3",
          "blockTimestamp": "0x0",
          "transactionHash": "0x1e4527cd5063fbfc0af3a78b275daabb69e86ffaa96ad00b332d7e454fcc8c0a",
          "transactionIndex": "0x1",
          "logIndex": "0x4",
          "removed": false
        },
        {
          "address": "0xe79bf574bfcfc17ba858cc311ce5fef8b78e947b",
          "topics": [
            "0xa24526d9177ad7404926eef14a34a6c8283948f387d426e2ace696d7bb72d97c",
            "0x0000000000000000000000000000000000000000000000000000000000000001",
            "0x00000000000000000000000096455c9b00d530bd0629b71b674298440328b1dd"
          ],
          "data": "0x",
          "blockHash": "0xc5a272c854664dad4ccb36ebbc6ca8c5f3a1309561478075a1f92f60d711ccd5",
          "blockNumber": "0x14125a3",
          "blockTimestamp": "0x0",
          "transactionHash": "0x1e4527cd5063fbfc0af3a78b275daabb69e86ffaa96ad00b332d7e454fcc8c0a",
          "transactionIndex": "0x1",
          "logIndex": "0x5",
          "removed": false
        }
      ],
      "logsBloom": "0x00000000000000000000000000800000000000000000000000000000000000000800000000000000000000000000000000000000800000000000000000040000000040000000000000000008000000000000400000040000000000000000000000000000020000000000000000000800000000000000000000000010000000000000000000000000000000000000000000000000000000000010000000000000000000000000000000000000000001002000000000000000000000000800008000000002000000000000000000000000000000000000000000000000000060000000000000000000200000000000000001000000000000000000000000000000",
      "type": "0x0",
      "transactionHash": "0x1e4527cd5063fbfc0af3a78b275daabb69e86ffaa96ad00b332d7e454fcc8c0a",
      "transactionIndex": "0x1",
      "blockHash": "0xc5a272c854664dad4ccb36ebbc6ca8c5f3a1309561478075a1f92f60d711ccd5",
      "blockNumber": "0x14125a3",
      "gasUsed": "0x927c5",
      "effectiveGasPrice": "0xee6b2800",
      "from": "0x96455c9b00d530bd0629b71b674298440328b1dd",
      "to": "0xe79bf574bfcfc17ba858cc311ce5fef8b78e947b",
      "contractAddress": null
    },
    {
      "status": "0x1",
      "cumulativeGasUsed": "0x1c375f",
      "logs": [
        {
          "address": "0xe79bf574bfcfc17ba858cc311ce5fef8b78e947b",
          "topics": [
            "0xddf252ad1be2c89b69c2b068fc378daa952ba7f163c4a11628f55a4df523b3ef",
            "0x0000000000000000000000000000000000000000000000000000000000000000",
            "0x00000000000000000000000096455c9b00d530bd0629b71b674298440328b1dd",
            "0x0000000000000000000000000000000000000000000000000000000000000002"
          ],
          "data": "0x",
          "blockHash": "0xc5a272c854664dad4ccb36ebbc6ca8c5f3a1309561478075a1f92f60d711ccd5",
          "blockNumber": "0x14125a3",
          "blockTimestamp": "0x0",
          "transactionHash": "0x1edeeb198b5b6d13499549904045d9a7e4910689c3d49e2488c6ac658db47e0c",
          "transactionIndex": "0x2",
          "logIndex": "0x6",
          "removed": false
        },
        {
          "address": "0xe79bf574bfcfc17ba858cc311ce5fef8b78e947b",
          "topics": [
            "0xf8e1a15aba9398e019f0b49df1a4fde98ee17ae345cb5f6b5e2c27f5033e8ce7"
          ],
          "data": "0x0000000000000000000000000000000000000000000000000000000000000002",
          "blockHash": "0xc5a272c854664dad4ccb36ebbc6ca8c5f3a1309561478075a1f92f60d711ccd5",
          "blockNumber": "0x14125a3",
          "blockTimestamp": "0x0",
          "transactionHash": "0x1edeeb198b5b6d13499549904045d9a7e4910689c3d49e2488c6ac658db47e0c",
          "transactionIndex": "0x2",
          "logIndex": "0x7",
          "removed": false
        },
        {
          "address": "0xe79bf574bfcfc17ba858cc311ce5fef8b78e947b",
          "topics": [
            "0xa24526d9177ad7404926eef14a34a6c8283948f387d426e2ace696d7bb72d97c",
            "0x0000000000000000000000000000000000000000000000000000000000000002",
            "0x00000000000000000000000096455c9b00d530bd0629b71b674298440328b1dd"
          ],
          "data": "0x",
          "blockHash": "0xc5a272c854664dad4ccb36ebbc6ca8c5f3a1309561478075a1f92f60d711ccd5",
          "blockNumber": "0x14125a3",
          "blockTimestamp": "0x0",
          "transactionHash": "0x1edeeb198b5b6d13499549904045d9a7e4910689c3d49e2488c6ac658db47e0c",
          "transactionIndex": "0x2",
          "logIndex": "0x8",
          "removed": false
        }
      ],
      "logsBloom": "0x04000000000000000000000000800000000000000000000000000000000000000800000000000000000000000000000000000000800000000000000000000000000040000000000000000008000000000000400000000000000000000000000000000000020000000000000000000800000000000000000000000010000000000000000000000000000000000000000000000000000000000010000000000000000000000000000000000100000001002000000000000000000000000800008000000002000000000000000000000000000000000000000000000000000020000000000000000000200000000000000001000000008000000000000000000000",
      "type": "0x0",
      "transactionHash": "0x1edeeb198b5b6d13499549904045d9a7e4910689c3d49e2488c6ac658db47e0c",
      "transactionIndex": "0x2",
      "blockHash": "0xc5a272c854664dad4ccb36ebbc6ca8c5f3a1309561478075a1f92f60d711ccd5",
      "blockNumber": "0x14125a3",
      "gasUsed": "0x927c5",
      "effectiveGasPrice": "0xee6b2800",
      "from": "0x96455c9b00d530bd0629b71b674298440328b1dd",
      "to": "0xe79bf574bfcfc17ba858cc311ce5fef8b78e947b",
      "contractAddress": null
    },
    {
      "status": "0x1",
      "cumulativeGasUsed": "0x1e76bb",
      "logs": [
        {
          "address": "0xc203e2686601cc252ece66f8c792ff88e8fbdd9b",
          "topics": [
            "0x2c179e1e4a2440acecf6f47ee9d109186409daeeab22578623edc7bf37ddbbc1",
            "0x0000000000000000000000000000000000000000000000000000000000000000",
            "0x00000000000000000000000096455c9b00d530bd0629b71b674298440328b1dd"
          ],
          "data": "0x00000000000000000000000000000000000000000000000000038d7ea4c68000",
          "blockHash": "0xc5a272c854664dad4ccb36ebbc6ca8c5f3a1309561478075a1f92f60d711ccd5",
          "blockNumber": "0x14125a3",
          "blockTimestamp": "0x0",
          "transactionHash": "0x7c6c002dbc3815a66abab4bb0621f93220cd958526b8bc1d84234ac7dda49617",
          "transactionIndex": "0x3",
          "logIndex": "0x9",
          "removed": false
        }
      ],
      "logsBloom": "0x00000080000000000000000000000000000000000000004000000000000000000800000000000000000000000000000000000000800000000000000000000000000000000000000000000000000000000000000000000800000000000000000000000000020000000000000000000800000000000000000000000000000000000000000000000000000000000000010000000000000000000000000000000000000000000000000000000000000000000000000000000000000000000000000000000000000000000000000000000000000000000000000000000000000020000000000000000000000000000000000001000000000000000020000000002000",
      "type": "0x0",
      "transactionHash": "0x7c6c002dbc3815a66abab4bb0621f93220cd958526b8bc1d84234ac7dda49617",
      "transactionIndex": "0x3",
      "blockHash": "0xc5a272c854664dad4ccb36ebbc6ca8c5f3a1309561478075a1f92f60d711ccd5",
      "blockNumber": "0x14125a3",
      "gasUsed": "0x23f5c",
      "effectiveGasPrice": "0xee6b2800",
      "from": "0x96455c9b00d530bd0629b71b674298440328b1dd",
      "to": "0xc203e2686601cc252ece66f8c792ff88e8fbdd9b",
      "contractAddress": null
    },
    {
      "status": "0x1",
      "cumulativeGasUsed": "0x211de3",
      "logs": [
        {
          "address": "0xc203e2686601cc252ece66f8c792ff88e8fbdd9b",
          "topics": [
            "0x2c179e1e4a2440acecf6f47ee9d109186409daeeab22578623edc7bf37ddbbc1",
            "0x0000000000000000000000000000000000000000000000000000000000000001",
            "0x00000000000000000000000096455c9b00d530bd0629b71b674298440328b1dd"
          ],
          "data": "0x00000000000000000000000000000000000000000000000000038d7ea4c68000",
          "blockHash": "0xc5a272c854664dad4ccb36ebbc6ca8c5f3a1309561478075a1f92f60d711ccd5",
          "blockNumber": "0x14125a3",
          "blockTimestamp": "0x0",
          "transactionHash": "0x91535de4bf79cf7df70ac0332a43cab8a015dba9e87b792945dc6dd7daebd653",
          "transactionIndex": "0x4",
          "logIndex": "0xa",
          "removed": false
        }
      ],
      "logsBloom": "0x00000080000000000000000000000000000000000000004000000000000000000800000000000000000000000000000000000000800000000000000000040000000000000000000000000000000000000000000000040800000000000000000000000000000000000000000000000000000000000000000000000000000000000000000000000000000000000000010000000000000000000000000000000000000000000000000000000000000000000000000000000000000000000000000000000000000000000000000000000000000000000000000000000000000040000000000000000000000000000000000001000000000000000020000000002000",
      "type": "0x0",
      "transactionHash": "0x91535de4bf79cf7df70ac0332a43cab8a015dba9e87b792945dc6dd7daebd653",
      "transactionIndex": "0x4",
      "blockHash": "0xc5a272c854664dad4ccb36ebbc6ca8c5f3a1309561478075a1f92f60d711ccd5",
      "blockNumber": "0x14125a3",
      "gasUsed": "0x2a728",
      "effectiveGasPrice": "0xee6b2800",
      "from": "0x96455c9b00d530bd0629b71b674298440328b1dd",
      "to": "0xc203e2686601cc252ece66f8c792ff88e8fbdd9b",
      "contractAddress": null
    },
    {
      "status": "0x1",
      "cumulativeGasUsed": "0x23c50b",
      "logs": [
        {
          "address": "0xc203e2686601cc252ece66f8c792ff88e8fbdd9b",
          "topics": [
            "0x2c179e1e4a2440acecf6f47ee9d109186409daeeab22578623edc7bf37ddbbc1",
            "0x0000000000000000000000000000000000000000000000000000000000000002",
            "0x00000000000000000000000096455c9b00d530bd0629b71b674298440328b1dd"
          ],
          "data": "0x0000000000000000000000000000000000000000000000000001c6bf52634000",
          "blockHash": "0xc5a272c854664dad4ccb36ebbc6ca8c5f3a1309561478075a1f92f60d711ccd5",
          "blockNumber": "0x14125a3",
          "blockTimestamp": "0x0",
          "transactionHash": "0x97dbff9a4784efb0969725f6fc8e56ffce9c0d4ec1fa2138a7d03326c3b237db",
          "transactionIndex": "0x5",
          "logIndex": "0xb",
          "removed": false
        }
      ],
      "logsBloom": "0x04000080000000000000000000000000000000000000004000000000000000000800000000000000000000000000000000000000800000000000000000000000000000000000000000000000000000000000000000000800000000000000000000000000000000000000000000000000000000000000000000000000000000000000000000000000000000000000010000000000000000000000000000000000000000000000000000000100000000000000000000000000000000000000000000000000000000000000000000000000000000000000000000000000000000000000000000000000000000000000000001000000008000000020000000002000",
      "type": "0x0",
      "transactionHash": "0x97dbff9a4784efb0969725f6fc8e56ffce9c0d4ec1fa2138a7d03326c3b237db",
      "transactionIndex": "0x5",
      "blockHash": "0xc5a272c854664dad4ccb36ebbc6ca8c5f3a1309561478075a1f92f60d711ccd5",
      "blockNumber": "0x14125a3",
      "gasUsed": "0x2a728",
      "effectiveGasPrice": "0xee6b2800",
      "from": "0x96455c9b00d530bd0629b71b674298440328b1dd",
      "to": "0xc203e2686601cc252ece66f8c792ff88e8fbdd9b",
      "contractAddress": null
    }
  ],
  "libraries": [],
  "pending": [],
  "returns": {},
  "timestamp": 1771567920389,
  "chain": 16602,
  "commit": "bd33c0d"
}